{
    "_format": "hh-sol-artifact-1",
    "contractName": "RationDistribution",
    "sourceName": "contracts/RationDistribution.sol",
    "abi": [
        {
            "inputs": [],
            "stateMutability": "nonpayable",
            "type": "constructor"
        },
        {
            "anonymous": false,
            "inputs": [
                {
                    "indexed": false,
                    "internalType": "uint256",
                    "name": "claimId",
                    "type": "uint256"
                }
            ],
            "name": "Approved",
            "type": "event"
        },
        {
            "anonymous": false,
            "inputs": [
                {
                    "indexed": false,
                    "internalType": "uint256",
                    "name": "claimId",
                    "type": "uint256"
                },
                {
                    "indexed": true,
                    "internalType": "address",
                    "name": "user",
                    "type": "address"
                },
                {
                    "indexed": false,
                    "internalType": "string",
                    "name": "name",
                    "type": "string"
                },
                {
                    "indexed": false,
                    "internalType": "string",
                    "name": "nic",
                    "type": "string"
                },
                {
                    "indexed": false,
                    "internalType": "string[]",
                    "name": "items",
                    "type": "string[]"
                }
            ],
            "name": "Claimed",
            "type": "event"
        },
        {
            "inputs": [],
            "name": "admin",
            "outputs": [
                {
                    "internalType": "address",
                    "name": "",
                    "type": "address"
                }
            ],
            "stateMutability": "view",
            "type": "function"
        },
        {
            "inputs": [
                {
                    "internalType": "uint256",
                    "name": "claimId",
                    "type": "uint256"
                }
            ],
            "name": "approveClaim",
            "outputs": [],
            "stateMutability": "nonpayable",
            "type": "function"
        },
        {
            "inputs": [
                {
                    "internalType": "string",
                    "name": "name",
                    "type": "string"
                },
                {
                    "internalType": "string",
                    "name": "nic",
                    "type": "string"
                },
                {
                    "internalType": "string[]",
                    "name": "items",
                    "type": "string[]"
                }
            ],
            "name": "claimRation",
            "outputs": [],
            "stateMutability": "nonpayable",
            "type": "function"
        },
        {
            "inputs": [
                {
                    "internalType": "uint256",
                    "name": "",
                    "type": "uint256"
                }
            ],
            "name": "claims",
            "outputs": [
                {
                    "internalType": "address",
                    "name": "user",
                    "type": "address"
                },
                {
                    "internalType": "string",
                    "name": "name",
                    "type": "string"
                },
                {
                    "internalType": "string",
                    "name": "nic",
                    "type": "string"
                },
                {
                    "internalType": "uint256",
                    "name": "timestamp",
                    "type": "uint256"
                },
                {
                    "internalType": "bool",
                    "name": "approved",
                    "type": "bool"
                }
            ],
            "stateMutability": "view",
            "type": "function"
        },
        {
            "inputs": [],
            "name": "getClaims",
            "outputs": [
                {
                    "components": [
                        {
                            "internalType": "address",
                            "name": "user",
                            "type": "address"
                        },
                        {
                            "internalType": "string",
                            "name": "name",
                            "type": "string"
                        },
                        {
                            "internalType": "string",
                            "name": "nic",
                            "type": "string"
                        },
                        {
                            "internalType": "string[]",
                            "name": "items",
                            "type": "string[]"
                        },
                        {
                            "internalType": "uint256",
                            "name": "timestamp",
                            "type": "uint256"
                        },
                        {
                            "internalType": "bool",
                            "name": "approved",
                            "type": "bool"
                        }
                    ],
                    "internalType": "struct RationDistribution.Claim[]",
                    "name": "",
                    "type": "tuple[]"
                }
            ],
            "stateMutability": "view",
            "type": "function"
        }
    ],
    "bytecode": "0x6080604052348015600f57600080fd5b5033600160006101000a81548173ffffffffffffffffffffffffffffffffffffffff021916908373ffffffffffffffffffffffffffffffffffffffff16021790555061156e806100606000396000f3fe608060405234801561001057600080fd5b50600436106100575760003560e01c806346e301351461005c578063a888c2cd14610078578063c52822f8146100ac578063f851a440146100ca578063fce925dc146100e8575b600080fd5b61007660048036038101906100719190610947565b610104565b005b610092600480360381019061008d9190610947565b61020c565b6040516100a3959493929190610a6f565b60405180910390f35b6100b461038f565b6040516100c19190610d62565b60405180910390f35b6100d2610666565b6040516100df9190610d84565b60405180910390f35b61010260048036038101906100fd9190610fba565b61068c565b005b600160009054906101000a900473ffffffffffffffffffffffffffffffffffffffff1673ffffffffffffffffffffffffffffffffffffffff163373ffffffffffffffffffffffffffffffffffffffff1614610194576040517f08c379a000000000000000000000000000000000000000000000000000000000815260040161018b906110ad565b60405180910390fd5b6001600082815481106101aa576101a96110cd565b5b906000526020600020906006020160050160006101000a81548160ff0219169083151502179055507f3ad93af63cb7967b23e4fb500b7d7d28b07516325dcf341f88bebf959d82c1cb8160405161020191906110fc565b60405180910390a150565b6000818154811061021c57600080fd5b90600052602060002090600602016000915090508060000160009054906101000a900473ffffffffffffffffffffffffffffffffffffffff169080600101805461026590611146565b80601f016020809104026020016040519081016040528092919081815260200182805461029190611146565b80156102de5780601f106102b3576101008083540402835291602001916102de565b820191906000526020600020905b8154815290600101906020018083116102c157829003601f168201915b5050505050908060020180546102f390611146565b80601f016020809104026020016040519081016040528092919081815260200182805461031f90611146565b801561036c5780601f106103415761010080835404028352916020019161036c565b820191906000526020600020905b81548152906001019060200180831161034f57829003601f168201915b5050505050908060040154908060050160009054906101000a900460ff16905085565b60606000805480602002602001604051908101604052809291908181526020016000905b8282101561065d57838290600052602060002090600602016040518060c00160405290816000820160009054906101000a900473ffffffffffffffffffffffffffffffffffffffff1673ffffffffffffffffffffffffffffffffffffffff1673ffffffffffffffffffffffffffffffffffffffff16815260200160018201805461043c90611146565b80601f016020809104026020016040519081016040528092919081815260200182805461046890611146565b80156104b55780601f1061048a576101008083540402835291602001916104b5565b820191906000526020600020905b81548152906001019060200180831161049857829003601f168201915b505050505081526020016002820180546104ce90611146565b80601f01602080910402602001604051908101604052809291908181526020018280546104fa90611146565b80156105475780601f1061051c57610100808354040283529160200191610547565b820191906000526020600020905b81548152906001019060200180831161052a57829003601f168201915b5050505050815260200160038201805480602002602001604051908101604052809291908181526020016000905b8282101561062157838290600052602060002001805461059490611146565b80601f01602080910402602001604051908101604052809291908181526020018280546105c090611146565b801561060d5780601f106105e25761010080835404028352916020019161060d565b820191906000526020600020905b8154815290600101906020018083116105f057829003601f168201915b505050505081526020019060010190610575565b505050508152602001600482015481526020016005820160009054906101000a900460ff161515151581525050815260200190600101906103b3565b50505050905090565b600160009054906101000a900473ffffffffffffffffffffffffffffffffffffffff1681565b60006040518060c001604052803373ffffffffffffffffffffffffffffffffffffffff16815260200185815260200184815260200183815260200142815260200160001515815250908060018154018082558091505060019003906000526020600020906006020160009091909190915060008201518160000160006101000a81548173ffffffffffffffffffffffffffffffffffffffff021916908373ffffffffffffffffffffffffffffffffffffffff16021790555060208201518160010190816107599190611323565b50604082015181600201908161076f9190611323565b50606082015181600301908051906020019061078c929190610823565b506080820151816004015560a08201518160050160006101000a81548160ff02191690831515021790555050503373ffffffffffffffffffffffffffffffffffffffff167ff2035431fbfd466ff7cd053316c2e2c030a43b6bb182a5a68d39e8440d99baff60016000805490506108039190611424565b85858560405161081694939291906114de565b60405180910390a2505050565b82805482825590600052602060002090810192821561086b579160200282015b8281111561086a57825182908161085a9190611323565b5091602001919060010190610843565b5b509050610878919061087c565b5090565b5b8082111561089c576000818161089391906108a0565b5060010161087d565b5090565b5080546108ac90611146565b6000825580601f106108be57506108dd565b601f0160209004906000526020600020908101906108dc91906108e0565b5b50565b5b808211156108f95760008160009055506001016108e1565b5090565b6000604051905090565b600080fd5b600080fd5b6000819050919050565b61092481610911565b811461092f57600080fd5b50565b6000813590506109418161091b565b92915050565b60006020828403121561095d5761095c610907565b5b600061096b84828501610932565b91505092915050565b600073ffffffffffffffffffffffffffffffffffffffff82169050919050565b600061099f82610974565b9050919050565b6109af81610994565b82525050565b600081519050919050565b600082825260208201905092915050565b60005b838110156109ef5780820151818401526020810190506109d4565b60008484015250505050565b6000601f19601f8301169050919050565b6000610a17826109b5565b610a2181856109c0565b9350610a318185602086016109d1565b610a3a816109fb565b840191505092915050565b610a4e81610911565b82525050565b60008115159050919050565b610a6981610a54565b82525050565b600060a082019050610a8460008301886109a6565b8181036020830152610a968187610a0c565b90508181036040830152610aaa8186610a0c565b9050610ab96060830185610a45565b610ac66080830184610a60565b9695505050505050565b600081519050919050565b600082825260208201905092915050565b6000819050602082019050919050565b610b0581610994565b82525050565b600082825260208201905092915050565b6000610b27826109b5565b610b318185610b0b565b9350610b418185602086016109d1565b610b4a816109fb565b840191505092915050565b600081519050919050565b600082825260208201905092915050565b6000819050602082019050919050565b6000610b8d8383610b1c565b905092915050565b6000602082019050919050565b6000610bad82610b55565b610bb78185610b60565b935083602082028501610bc985610b71565b8060005b85811015610c055784840389528151610be68582610b81565b9450610bf183610b95565b925060208a01995050600181019050610bcd565b50829750879550505050505092915050565b610c2081610911565b82525050565b610c2f81610a54565b82525050565b600060c083016000830151610c4d6000860182610afc565b5060208301518482036020860152610c658282610b1c565b91505060408301518482036040860152610c7f8282610b1c565b91505060608301518482036060860152610c998282610ba2565b9150506080830151610cae6080860182610c17565b5060a0830151610cc160a0860182610c26565b508091505092915050565b6000610cd88383610c35565b905092915050565b6000602082019050919050565b6000610cf882610ad0565b610d028185610adb565b935083602082028501610d1485610aec565b8060005b85811015610d505784840389528151610d318582610ccc565b9450610d3c83610ce0565b925060208a01995050600181019050610d18565b50829750879550505050505092915050565b60006020820190508181036000830152610d7c8184610ced565b905092915050565b6000602082019050610d9960008301846109a6565b92915050565b600080fd5b600080fd5b7f4e487b7100000000000000000000000000000000000000000000000000000000600052604160045260246000fd5b610de1826109fb565b810181811067ffffffffffffffff82111715610e0057610dff610da9565b5b80604052505050565b6000610e136108fd565b9050610e1f8282610dd8565b919050565b600067ffffffffffffffff821115610e3f57610e3e610da9565b5b610e48826109fb565b9050602081019050919050565b82818337600083830152505050565b6000610e77610e7284610e24565b610e09565b905082815260208101848484011115610e9357610e92610da4565b5b610e9e848285610e55565b509392505050565b600082601f830112610ebb57610eba610d9f565b5b8135610ecb848260208601610e64565b91505092915050565b600067ffffffffffffffff821115610eef57610eee610da9565b5b602082029050602081019050919050565b600080fd5b6000610f18610f1384610ed4565b610e09565b90508083825260208201905060208402830185811115610f3b57610f3a610f00565b5b835b81811015610f8257803567ffffffffffffffff811115610f6057610f5f610d9f565b5b808601610f6d8982610ea6565b85526020850194505050602081019050610f3d565b5050509392505050565b600082601f830112610fa157610fa0610d9f565b5b8135610fb1848260208601610f05565b91505092915050565b600080600060608486031215610fd357610fd2610907565b5b600084013567ffffffffffffffff811115610ff157610ff061090c565b5b610ffd86828701610ea6565b935050602084013567ffffffffffffffff81111561101e5761101d61090c565b5b61102a86828701610ea6565b925050604084013567ffffffffffffffff81111561104b5761104a61090c565b5b61105786828701610f8c565b9150509250925092565b7f4f6e6c792061646d696e2063616e20617070726f766500000000000000000000600082015250565b60006110976016836109c0565b91506110a282611061565b602082019050919050565b600060208201905081810360008301526110c68161108a565b9050919050565b7f4e487b7100000000000000000000000000000000000000000000000000000000600052603260045260246000fd5b60006020820190506111116000830184610a45565b92915050565b7f4e487b7100000000000000000000000000000000000000000000000000000000600052602260045260246000fd5b6000600282049050600182168061115e57607f821691505b60208210810361117157611170611117565b5b50919050565b60008190508160005260206000209050919050565b60006020601f8301049050919050565b600082821b905092915050565b6000600883026111d97fffffffffffffffffffffffffffffffffffffffffffffffffffffffffffffffff8261119c565b6111e3868361119c565b95508019841693508086168417925050509392505050565b6000819050919050565b600061122061121b61121684610911565b6111fb565b610911565b9050919050565b6000819050919050565b61123a83611205565b61124e61124682611227565b8484546111a9565b825550505050565b600090565b611263611256565b61126e818484611231565b505050565b5b818110156112925761128760008261125b565b600181019050611274565b5050565b601f8211156112d7576112a881611177565b6112b18461118c565b810160208510156112c0578190505b6112d46112cc8561118c565b830182611273565b50505b505050565b600082821c905092915050565b60006112fa600019846008026112dc565b1980831691505092915050565b600061131383836112e9565b9150826002028217905092915050565b61132c826109b5565b67ffffffffffffffff81111561134557611344610da9565b5b61134f8254611146565b61135a828285611296565b600060209050601f83116001811461138d576000841561137b578287015190505b6113858582611307565b8655506113ed565b601f19841661139b86611177565b60005b828110156113c35784890151825560018201915060208501945060208101905061139e565b868310156113e057848901516113dc601f8916826112e9565b8355505b6001600288020188555050505b505050505050565b7f4e487b7100000000000000000000000000000000000000000000000000000000600052601160045260246000fd5b600061142f82610911565b915061143a83610911565b9250828203905081811115611452576114516113f5565b5b92915050565b600082825260208201905092915050565b600061147482610b55565b61147e8185611458565b93508360208202850161149085610b71565b8060005b858110156114cc57848403895281516114ad8582610b81565b94506114b883610b95565b925060208a01995050600181019050611494565b50829750879550505050505092915050565b60006080820190506114f36000830187610a45565b81810360208301526115058186610a0c565b905081810360408301526115198185610a0c565b9050818103606083015261152d8184611469565b90509594505050505056fea26469706673582212204d3aea3435ff839dabbf40f35910cd51a2a54d53012769c7ddec22b51f82929064736f6c634300081c0033",
    "linkReferences": {},
    "deployedLinkReferences": {}
}